:100000004BC00000C7C50000EEC5000015C60000CB
:100010003CC6000063C600008AC60000B1C60000EE
:10002000D8C60000FFC6000026C700004DC700006C
:1000300074C700009BC70000C2C70000E9C70000EA
:100040000C9431080C945A080C9483080C94AC0856
:100050000C94D5080C94FE080C9427090C945009B4
:100060000C947A090C94A3090C94CD090C94F7090B
:100070000C94210A0C944B0A0C94750A0C949E0A59
:100080000C94C80A0C94F20A0C941B0B6364696EFE
:100090006F70737578585B0011241FBECFEFD0E1ED
:1000A000DEBFCDBF11E0A0E0B1E0E4EBF8E200E09C
:1000B0000BBF02C007900D92AE36B107D9F721E011
:1000C000AEE6B1E001C01D92AB3CB207E1F70E9481
:1000D000FA0C0C9458140E94BC0B0E94C50C42E907
:1000E00051E061E090E080E00C944A0B089580912B
:1000F000A3019091A401009711F00C94520B089564
:100100008091B7019091B801009711F00C94520BB7
:1001100008958091A5019091A601009711F00C948B
:10012000520B08958091B9019091BA01009711F096
:100130000C94520B0895089508958091A701909111
:10014000A801009711F00C94520B08958091BB0107
:100150009091BC01009711F00C94520B089580917E
:10016000A9019091AA01009711F00C94520B0895E7
:100170008091BD019091BE01009711F00C94520B3B
:1001800008950895089580919301909194010097A6
:1001900011F00C94520B0895809195019091960165
:1001A000009711F00C94520B089580919701909153
:1001B0009801009711F00C94520B089580919901C9
:1001C00090919A01009711F00C94520B0895809130
:1001D0009B0190919C01009711F00C94520B089593
:1001E00080919D0190919E01009711F00C94520B0B
:1001F000089580919F019091A001009711F00C94B7
:10020000520B08958091A1019091A201009711F0E5
:100210000C94520B08958091AB019091AC01009722
:1002200011F00C94520B0895E0912201F0912301FA
:10023000309709F009958091B5019091B60100972A
:1002400011F00C94520B0895E0911201F0911301FA
:10025000309709F009958091B1019091B201009712
:1002600011F00C94520B0895E0911401F0911501D6
:10027000309709F009958091AD019091AE010097FA
:1002800011F00C94520B0895E0910201F0910301DA
:10029000309709F009958091B3019091B4010097CE
:1002A00011F00C94520B0895E0910401F0910501B6
:1002B000309709F009958091AF019091B0010097B6
:1002C00011F00C94520B08958091BF019091C001E0
:1002D000009711F00C94520B08951092900081E158
:1002E00089B98AB188618AB9E5E9F0E080818660E0
:1002F00080838AB1806C8AB908959B015D9BFECF93
:100300008CB910926F0190E080E08217930709F496
:10031000089500000196F9CF9A01FC01680F792F2A
:10032000711DE617F70719F410926F0108955D9B90
:10033000FECF81918CB990E080E08217930789F31A
:1003400000000196FACF1092980081E18093990005
:10035000EAE9F0E0808188618083ADE9B0E08C91CA
:1003600086608C938081806C808308959B0190913E
:100370009B0095FFFCCF80939C0010926E0190E053
:1003800080E08217930709F4089500000196F9CFE1
:100390009A01FC01680F792F711DE617F70719F410
:1003A00010926E01089580919B0085FFFCCF819192
:1003B00080939C0090E080E08217930771F3000027
:1003C0000196FACFAF92BF92CF92DF92EF92FF9257
:1003D0000F931F93CF93DF93CDB7DEB728970FB658
:1003E000F894DEBF0FBECDBF7C015A0110E000E0E3
:1003F000C62ED12C0C151D051CF010926F012DC0BE
:10040000AE014F5F5F4F62E370E080E090E00E94DA
:10041000260C5F9B0DC08CB1F701E00FF11F8083AC
:1004200090E080E08A159B0549F50F5F1F4FE2CFF2
:1004300089819A81AB81BC818D839E83AF83B8878C
:10044000BC01CD010E94500C882319F381E08093F8
:100450006F010E0D1F1DD8011C9228960FB6F8943F
:10046000DEBF0FBECDBFDF91CF911F910F91FF90E7
:10047000EF90DF90CF90BF90AF900895000001966D
:10048000D1CFAF92BF92CF92DF92EF92FF920F93B4
:100490001F93CF93DF93CDB7DEB728970FB6F894AD
:1004A000DEBF0FBECDBF7C015A0110E000E0C62EBA
:1004B000D12C0C151D051CF010926E0130C0AE0140
:1004C0004F5F5F4F62E370E080E090E00E94260C97
:1004D00080919B0087FF0EC080919C00F701E00F88
:1004E000F11F808390E080E08A159B0549F50F5F3E
:1004F0001F4FDFCF89819A81AB81BC818D839E8321
:10050000AF83B887BC01CD010E94500C882301F352
:1005100081E080936E010E0D1F1DD8011C9228965C
:100520000FB6F894DEBF0FBECDBFDF91CF911F9104
:100530000F91FF90EF90DF90CF90BF90AF90089514
:1005400000000196D1CFEF92FF920F931F93CF93AC
:10055000DF93CDB7DEB728970FB6F894DEBF0FBE96
:10056000CDBF8C017B01AE014F5F5F4F62E370E056
:1005700080E090E00E94260C5F9B0DC08CB1F801DA
:10058000808310926F0190E080E08E159F05B1F09E
:1005900000000196FACF89819A81AB81BC818D835D
:1005A0009E83AF83B887BC01CD010E94500C882385
:1005B00019F381E080936F01D8011C9228960FB641
:1005C000F894DEBF0FBECDBFDF91CF911F910F9189
:1005D000FF90EF900895EF92FF920F931F93CF93A8
:1005E000DF93CDB7DEB728970FB6F894DEBF0FBE06
:1005F000CDBF8C017B01AE014F5F5F4F62E370E0C6
:1006000080E090E00E94260C80919B0087FF0EC046
:1006100080919C00F801808310926E0190E080E050
:100620008E159F05B1F000000196FACF89819A815D
:10063000AB81BC818D839E83AF83B887BC01CD0124
:100640000E94500C882301F381E080936E01D80151
:100650001C9228960FB6F894DEBF0FBECDBFDF9177
:10066000CF911F910F91FF90EF90089587B3887FEE
:1006700087BBBB9A80E48DB96F9A789408958FB93F
:1006800008958FB10895FF920F931F93CF93DF9337
:10069000CDB7DEB728970FB6F894DEBF0FBECDBF3B
:1006A000182FF92E062F080FAE014F5F5F4F62E340
:1006B00070E080E090E00E94260C779B09C0E12F5B
:1006C000FF2D8FB181930E17A1F01E2FFF2EECCFBF
:1006D00089819A81AB81BC818D839E83AF83B887EA
:1006E000BC01CD010E94500C882339F381E0809336
:1006F0003F0128960FB6F894DEBF0FBECDBFDF9145
:10070000CF911F910F91FF900895CF93DF93CDB7B5
:10071000DEB728970FB6F894DEBF0FBECDBFAE018F
:100720004F5F5F4F62E370E080E090E00E94260C34
:10073000779B02C08FB112C089819A81AB81BC8145
:100740008D839E83AF83B887BC01CD010E94500C7E
:10075000882371F381E080933F0180E028960FB6F3
:10076000F894DEBF0FBECDBFDF91CF910895FF9209
:100770000F931F93CF93DF93CDB7DEB728970FB6B4
:10078000F894DEBF0FBECDBF8C01F62EF80EF80137
:1007900080810F5F1F4F8FB9AE014F5F5F4F62E3E4
:1007A00070E080E090E00E94260C779B03C0F0127E
:1007B000EECF11C089819A81AB81BC818D839E83EC
:1007C000AF83B887BC01CD010E94500C882369F328
:1007D00081E080933F0128960FB6F894DEBF0FBEEC
:1007E000CDBFDF91CF911F910F91FF900895CF93CF
:1007F000DF93CDB7DEB728970FB6F894DEBF0FBEF4
:10080000CDBF8FB9AE014F5F5F4F62E370E080E014
:1008100090E00E94260C779911C089819A81AB8162
:10082000BC818D839E83AF83B887BC01CD010E94BC
:10083000500C882381F381E080933F0128960FB606
:10084000F894DEBF0FBECDBFDF91CF910895DF9248
:10085000EF92FF920F931F93CF93DF93CDB7DEB745
:1008600028970FB6F894DEBF0FBECDBF7B018C0179
:10087000D42ED80EF80180810F5F1F4F8FB9AE01C3
:100880004F5F5F4F62E370E080E090E0DFD7779BDF
:1008900007C0F7018FB18193D01691F07F01EACFA5
:1008A00089819A81AB81BC818D839E83AF83B88718
:1008B000BC01CD01F5D7882351F381E080933F013E
:1008C00028960FB6F894DEBF0FBECDBFDF91CF9153
:1008D0001F910F91FF90EF90DF900895CF93DF93DA
:1008E000CDB7DEB728970FB6F894DEBF0FBECDBFE9
:1008F0008FB9AE014F5F5F4F62E370E080E090E040
:10090000A5D7779B02C08FB111C089819A81AB8135
:10091000BC818D839E83AF83B887BC01CD01C0D7D6
:10092000882379F381E080933F0180E028960FB619
:10093000F894DEBF0FBECDBFDF91CF9108950E9426
:10094000C50C87B3876087BBBB98E1E6F0E0808188
:10095000806180838DB183658DB90895883000F101
:100960008A30C1F028F4883031F0893039F00895A8
:100970008B3099F00895BC9AC49A089598B387B3C0
:1009800021E030E001C0220F9A95EAF7822B87BB65
:10099000C59A0895BE9AC69A0895BF9AC79A0895AF
:1009A0008091620080618093620008958830B8F081
:1009B0008A3079F028F4883031F0893039F00895A0
:1009C0008B3051F00895BC9AC4980895C59AC59883
:1009D0000895C69AC6980895C79AC7980895CAD721
:1009E000809162008F7E809362000895FC01483000
:1009F00008F04AC08A339105E1F187339105C9F1C6
:100A000084339105B1F18133910599F182329105D9
:100A100081F18136910569F18735910551F186356E
:100A2000910539F18D37910521F18C37910509F147
:100A300080349105F1F080359105D9F08335910529
:100A4000C1F08F349105A9F08E34910591F08A3769
:100A5000910579F08832910561F08534910549F06E
:100A60008B38910531F08A38910519F08C38910551
:100A700069F4808101C0220F4A95EAF728272623CE
:100A80002827208380E0089585E0089582E0089576
:100A9000FC01862FD901483088F4E635F10519F0BC
:100AA000EC37F10569F46081682370E002C0759548
:100AB00067954A95E2F76C9380E0089585E0089584
:100AC00082E00895FC01DA018FEF860F8230D0F4C6
:100AD000E235F10519F0E434F10531F4613091F4B7
:100AE0008C91808380E00895E634F10519F0E038B8
:100AF000F10551F48C9180836230A1F711968C91AD
:100B00008183F0CF83E0089582E00895FC01DA014B
:100B10008FEF860F8230B8F5CF018155910902978A
:100B200030F0E334F10519F0E434F10531F46130CB
:100B300051F58C91808380E00895E634F105D9F079
:100B4000EA34F105C1F0E834F105A9F0E837F10520
:100B500091F0EC34F10579F0E038F10561F0E63818
:100B6000F10549F0E438F10531F0E238F10519F00A
:100B7000E838F10551F48C9180836230E1F61196EA
:100B80008C918183D8CF83E0089582E00895089501
:100B90000895F9CA1F920F920FB60F9211240BB647
:100BA0000F922F933F934F935F936F937F938F9306
:100BB0009F93AF93BF93EF93FF93EBDFFF91EF9181
:100BC000BF91AF919F918F917F916F915F914F9165
:100BD0003F912F910F900BBE0F900FBE0F901F9063
:100BE00018950895D9CA1F920F920FB60F9211242B
:100BF0000BB60F922F933F934F935F936F937F9317
:100C00008F939F93AF93BF93EF93FF93EBDFFF918E
:100C1000EF91BF91AF919F918F917F916F915F9174
:100C20004F913F912F910F900BBE0F900FBE0F90E1
:100C30001F9018950895B9CA1F920F920FB60F9280
:100C400011240BB60F922F933F934F935F936F93A3
:100C50007F938F939F93AF93BF93EF93FF93EBDFBC
:100C6000FF91EF91BF91AF919F918F917F916F9184
:100C70005F914F913F912F910F900BBE0F900FBE40
:100C80000F901F901895089599CA1F920F920FB652
:100C90000F9211240BB60F922F933F934F935F93B4
:100CA0006F937F938F939F93AF93BF93EF93FF9334
:100CB000EBDFFF91EF91BF91AF919F918F917F916A
:100CC0006F915F914F913F912F910F900BBE0F90BD
:100CD0000FBE0F901F901895089579CA1F920F921A
:100CE0000FB60F9211240BB60F922F933F934F9391
:100CF0005F936F937F938F939F93AF93BF93EF9384
:100D0000FF93EBDFFF91EF91BF91AF919F918F9197
:100D10007F916F915F914F913F912F910F900BBEFB
:100D20000F900FBE0F901F901895089559CA1F92EB
:100D30000F920FB60F9211240BB60F922F933F9381
:100D40004F935F936F937F938F939F93AF93BF93D3
:100D5000EF93FF93EBDFFF91EF91BF91AF919F91E5
:100D60008F917F916F915F914F913F912F910F9054
:100D70000BBE0F900FBE0F901F901895089539CAA3
:100D80001F920F920FB60F9211240BB60F922F9352
:100D90003F934F935F936F937F938F939F93AF9303
:100DA000BF93EF93FF93EBDFFF91EF91BF91AF9173
:100DB0009F918F917F916F915F914F913F912F9173
:100DC0000F900BBE0F900FBE0F901F9018950895B7
:100DD00019CA1F920F920FB60F9211240BB60F92E1
:100DE0002F933F934F935F936F937F938F939F9333
:100DF000AF93BF93EF93FF93EBDFFF91EF91BF9121
:100E0000AF919F918F917F916F915F914F913F91A2
:100E10002F910F900BBE0F900FBE0F901F90189543
:100E2000089594C91F920F920FB60F9211240BB61A
:100E30000F922F933F934F935F936F937F938F9373
:100E40009F93AF93BF93EF93FF93EBDFFF91EF91EE
:100E5000BF91AF919F918F917F916F915F914F91D2
:100E60003F912F910F900BBE0F900FBE0F901F90D0
:100E70001895089562C91F920F920FB60F92112410
:100E80000BB60F922F933F934F935F936F937F9384
:100E90008F939F93AF93BF93EF93FF93EBDFFF91FC
:100EA000EF91BF91AF919F918F917F916F915F91E2
:100EB0004F913F912F910F900BBE0F900FBE0F904F
:100EC0001F9018950895FECF1F920F920FB60F92A4
:100ED00011240BB60F922F933F934F935F936F9311
:100EE0007F938F939F93AF93BF93EF93FF93EBDF2A
:100EF000FF91EF91BF91AF919F918F917F916F91F2
:100F00005F914F913F912F910F900BBE0F900FBEAD
:100F10000F901F901895089505C91F920F920FB654
:100F20000F9211240BB60F922F933F934F935F9321
:100F30006F937F938F939F93AF93BF93EF93FF93A1
:100F4000EBDFFF91EF91BF91AF919F918F917F91D7
:100F50006F915F914F913F912F910F900BBE0F902A
:100F60000FBE0F901F9018950895E5C81F920F921D
:100F70000FB60F9211240BB60F922F933F934F93FE
:100F80005F936F937F938F939F93AF93BF93EF93F1
:100F9000FF93EBDFFF91EF91BF91AF919F918F9105
:100FA0007F916F915F914F913F912F910F900BBE69
:100FB0000F900FBE0F901F9018950895AAC81F920A
:100FC0000F920FB60F9211240BB60F922F933F93EF
:100FD0004F935F936F937F938F939F93AF93BF9341
:100FE000EF93FF93EBDFFF91EF91BF91AF919F9153
:100FF0008F917F916F915F914F913F912F910F90C2
:101000000BBE0F900FBE0F901F901895089578C8D3
:101010001F920F920FB60F9211240BB60F922F93BF
:101020003F934F935F936F937F938F939F93AF9370
:10103000BF93EF93FF93EBDFFF91EF91BF91AF91E0
:101040009F918F917F916F915F914F913F912F91E0
:101050000F900BBE0F900FBE0F901F901895089524
:1010600046C81F920F920FB60F9211240BB60F9223
:101070002F933F934F935F936F937F938F939F93A0
:10108000AF93BF93EF93FF93EBDFFF91EF91BF918E
:10109000AF919F918F917F916F915F914F913F9110
:1010A0002F910F900BBE0F900FBE0F901F901895B1
:1010B0000895BAC81F920F920FB60F9211240BB663
:1010C0000F922F933F934F935F936F937F938F93E1
:1010D0009F93AF93BF93EF93FF93EBDFFF91EF915C
:1010E000BF91AF919F918F917F916F915F914F9140
:1010F0003F912F910F900BBE0F900FBE0F901F903E
:1011000018950895B1C81F920F920FB60F9211242F
:101110000BB60F922F933F934F935F936F937F93F1
:101120008F939F93AF93BF93EF93FF93EBDFFF9169
:10113000EF91BF91AF919F918F917F916F915F914F
:101140004F913F912F910F900BBE0F900FBE0F90BC
:101150001F9018950895FECF1F920F920FB60F9211
:1011600011240BB60F922F933F934F935F936F937E
:101170007F938F939F93AF93BF93EF93FF93EBDF97
:10118000FF91EF91BF91AF919F918F917F916F915F
:101190005F914F913F912F910F900BBE0F900FBE1B
:1011A0000F901F90189508954FC81F920F920FB679
:1011B0000F9211240BB60F922F933F934F935F938F
:1011C0006F937F938F939F93AF93BF93EF93FF930F
:1011D000EBDFFF91EF91BF91AF919F918F917F9145
:1011E0006F915F914F913F912F910F900BBE0F9098
:1011F0000FBE0F901F901895089566C81F920F920A
:101200000FB60F9211240BB60F922F933F934F936B
:101210005F936F937F938F939F93AF93BF93EF935E
:10122000FF93EBDFFF91EF91BF91AF919F918F9172
:101230007F916F915F914F913F912F910F900BBED6
:101240000F900FBE0F901F9018950895FECF1F921C
:101250000F920FB60F9211240BB60F922F933F935C
:101260004F935F936F937F938F939F93AF93BF93AE
:10127000EF93FF93EBDFFF91EF91BF91AF919F91C0
:101280008F917F916F915F914F913F912F910F902F
:101290000BBE0F900FBE0F901F9018950895FECFB4
:1012A0001F920F920FB60F9211240BB60F922F932D
:1012B0003F934F935F936F937F938F939F93AF93DE
:1012C000BF93EF93FF93EBDFFF91EF91BF91AF914E
:1012D0009F918F917F916F915F914F913F912F914E
:1012E0000F900BBE0F900FBE0F901F901895089592
:1012F0000C949C001F920F920FB60F9211240BB604
:101300000F922F933F934F935F936F937F938F939E
:101310009F93AF93BF93EF93FF93EADFFF91EF911A
:10132000BF91AF919F918F917F916F915F914F91FD
:101330003F912F910F900BBE0F900FBE0F901F90FB
:1013400018950895FECF1F920F920FB60F92112499
:101350000BB60F922F933F934F935F936F937F93AF
:101360008F939F93AF93BF93EF93FF93EBDFFF9127
:10137000EF91BF91AF919F918F917F916F915F910D
:101380004F913F912F910F900BBE0F900FBE0F907A
:101390001F90189508950C94B8001F920F920FB6E5
:1013A0000F9211240BB60F922F933F934F935F939D
:1013B0006F937F938F939F93AF93BF93EF93FF931D
:1013C0009BD3FF91EF91BF91AF919F918F917F91AF
:1013D0006F915F914F913F912F910F900BBE0F90A6
:1013E0000FBE0F901F90189508950C94C1001F9286
:1013F0000F920FB60F9211240BB60F922F933F93BB
:101400004F935F936F937F938F939F93AF93BF930C
:10141000EF93FF93EADFFF91EF91BF91AF919F911F
:101420008F917F916F915F914F913F912F910F908D
:101430000BBE0F900FBE0F901F90189508950C943F
:10144000C2001F920F920FB60F9211240BB60F928B
:101450002F933F934F935F936F937F938F939F93BC
:10146000AF93BF93EF93FF93EADFFF91EF91BF91AB
:10147000AF919F918F917F916F915F914F913F912C
:101480002F910F900BBE0F900FBE0F901F901895CD
:1014900008950C94AF001F920F920FB60F92112473
:1014A0000BB60F922F933F934F935F936F937F935E
:1014B0008F939F93AF93BF93EF93FF93EADFFF91D7
:1014C000EF91BF91AF919F918F917F916F915F91BC
:1014D0004F913F912F910F900BBE0F900FBE0F9029
:1014E0001F90189508950C9454011F920F920FB6F7
:1014F0000F9211240BB60F922F933F934F935F934C
:101500006F937F938F939F93AF93BF93EF93FF93CB
:10151000EADFFF91EF91BF91AF919F918F917F9102
:101520006F915F914F913F912F910F900BBE0F9054
:101530000FBE0F901F9018950895FECF1F920F9227
:101540000FB60F9211240BB60F922F933F934F9328
:101550005F936F937F938F939F93AF93BF93EF931B
:10156000FF93EBDFFF91EF91BF91AF919F918F912F
:101570007F916F915F914F913F912F910F900BBE93
:101580000F900FBE0F901F90189508950C94440172
:101590001F920F920FB60F9211240BB60F922F933A
:1015A0003F934F935F936F937F938F939F93AF93EB
:1015B000BF93EF93FF93EADFFF91EF91BF91AF915C
:1015C0009F918F917F916F915F914F913F912F915B
:1015D0000F900BBE0F900FBE0F901F90189508959F
:1015E0000C940B011F920F920FB60F9211240BB6A1
:1015F0000F922F933F934F935F936F937F938F93AC
:101600009F93AF93BF93EF93FF93EADFFF91EF9127
:10161000BF91AF919F918F917F916F915F914F910A
:101620003F912F910F900BBE0F900FBE0F901F9008
:1016300018950895FECF1F920F920FB60F921124A6
:101640000BB60F922F933F934F935F936F937F93BC
:101650008F939F93AF93BF93EF93FF93EBDFFF9134
:10166000EF91BF91AF919F918F917F916F915F911A
:101670004F913F912F910F900BBE0F900FBE0F9087
:101680001F901895282F792FCA01462F50E0622FFE
:101690000C944214282F792FCA01462F50E0622F54
:1016A0000C9432140F931F93CF93DF93EC0110E04F
:1016B00005E0892BB9F4DF91CF911F910F91089527
:1016C000AA81BB81109FA00DB11D11248C9188238C
:1016D00041F01196ED91FC91129713968D919C918A
:1016E00009951F5F8981181758F3E5CFCF93DF93D2
:1016F000FC01818190818917C0F43097B1F0A281FB
:10170000B38195E0899FA00DB11D11241C92129602
:101710007C936E93119714965C934E93139791E07C
:10172000980F9183DF91CF9108958FEFFBCFFC014C
:10173000892B71F08181681748F40280F381E02DD4
:1017400085E0689FE00DF11D1124408380E008953D
:101750008FEF0895CF93C82F8A3011F48DE0FADF10
:101760005D9BFECFCCB990E080E0CF9108955F9B68
:10177000FECF8CB190E008951092900081E189B97C
:101780008AB188618AB9E5E9F0E08081866080836A
:10179000E5ECF1E080E491E09383828391838083A0
:1017A00008951092C1011092C2011092C3011092CB
:1017B000C4010895CF93DF9300D000D0CDB7DEB73A
:1017C0008091C1019091C201A091C301B091C40167
:1017D000BC01CD010F900F900F900F90DF91CF9132
:1017E0000895CF92DF92EF92FF92CF93DF9300D0D4
:1017F00000D000D0CDB7DEB769837A838B839C831A
:101800005E834D83C090C101D090C201E090C301BE
:10181000F090C40128EE33E040E050E01ED2C20E4A
:10182000D31EE41EF51EED81FE81C082D182E282CC
:10183000F38226960FB6F894DEBF0FBECDBFDF91C0
:10184000CF91FF90EF90DF90CF9008950F931F936B
:10185000CF93DF9300D000D0CDB7DEB769837A8312
:101860008B839C838091C1019091C201A091C3019F
:10187000B091C40109811A812B813C81800F911F95
:10188000A21FB31FFA0180839183A283B3830F90B9
:101890000F900F900F90DF91CF911F910F910895AE
:1018A0000F931F93CF93DF9300D000D0CDB7DEB757
:1018B00069837A838B839C834091C1015091C201DB
:1018C0006091C3017091C40181E009811A812B816B
:1018D0003C81041715072607370708F080E00F90B2
:1018E0000F900F900F90DF91CF911F910F9108955E
:1018F000CF93DF9300D000D0CDB7DEB769837A8372
:101900008B839C838091C1019091C201A091C301FE
:10191000B091C40129813A814B815C81820F931F70
:10192000A41FB51F4091C1015091C2016091C30134
:101930007091C401481759076A077B0798F30F9005
:101940000F900F900F90DF91CF9108958091C1017A
:101950009091C201A091C301B091C4010196A11D53
:10196000B11D8093C1019093C201A093C301B093B4
:10197000C4010895883040F428B32F7130E2839F6A
:10198000C0011124822B88BB089587B3806E87BB6A
:10199000089587B3807F876087BBE1E6F0E08081B0
:1019A0008061808383E58DB981E08EB908958FB918
:1019B000779BFECF8FB108951092980081E18093BC
:1019C0009900EAE9F0E0808188618083EDE9F0E048
:1019D000808186608083089590919B0095FFFCCF65
:1019E00080939C00089580919B0087FFFCCF80919D
:1019F0009C000895CF93DF937BD00E946B002FEF64
:101A000040E06FEF88EC50D02FEF40E06FEF89ECB3
:101A10004BD0E0E7F1E0CEE4D1E0A0E8B1E020E88F
:101A200031E091918991890F8D93E217F307C9F7FE
:101A300080E090E0DF91CF910895CF93DF9300D0C5
:101A4000CDB7DEB721E040E067E08AE890E00E9491
:101A5000F60420E040E063E08BE890E00E94F604AA
:101A600021E043E068E18AE890E00E94F60421E08A
:101A700044E060E18DE790E00E94F60485EF90E09D
:101A80009A838983AE014F5F5F4F62E086E890E002
:101A90003DD80F900F90DF91CF910895CEDF1ABA05
:101AA0001BBA14BA15BA08954830F0F4883C69F4AA
:101AB0008AB330E002C0220F331F4A95E2F728278D
:101AC000262328272ABB80E00895893C79F484B333
:101AD00030E002C0220F331F4A95E2F72827262361
:101AE000282724BB80E0089582E0089581E00895CE
:101AF000D5DF789480E008958091900190919101D4
:101B000046978B3591050CF090C020915E0130E036
:101B10008217930719F42BB321502BBB20915F013F
:101B200030E08217930719F42BB322502BBB20917E
:101B3000600130E08217930719F42BB324502BBBBC
:101B40002091610130E08217930719F42BB32850DC
:101B50002BBB2091620130E08217930719F42BB35D
:101B600020512BBB2091630130E08217930719F4B9
:101B70002BB320522BBB2091640130E082179307D6
:101B800019F42BB320542BBB2091650130E0821750
:101B9000930719F42BB320582BBB2091660130E03A
:101BA0008217930719F425B3215025BB20916701B3
:101BB00030E08217930719F425B3225025BB2091FA
:101BC000680130E08217930719F425B3245025BB30
:101BD0002091690130E08217930719F425B328504A
:101BE00025BB20916A0130E08217930719F425B3D1
:101BF000205125BB20916B0130E08217930719F427
:101C000025B3205225BB20916C0130E08217930749
:101C100019F425B3205425BB20916D0130E08217C3
:101C2000930719F485B3805885BB809190019091FA
:101C30009101019690939101809390018091900180
:101C4000909191018438934038F010929101109254
:101C500090018FEF8BBB85BB0895A1E21A2EAA1BC2
:101C6000BB1BFD010DC0AA1FBB1FEE1FFF1FA2174C
:101C7000B307E407F50720F0A21BB30BE40BF50B49
:101C8000661F771F881F991F1A9469F760957095D2
:101C9000809590959B01AC01BD01CF0108952F92D5
:101CA0003F924F925F926F927F928F929F92AF92EC
:101CB000BF92CF92DF92EF92FF920F931F93CF9339
:101CC000DF93CDB7DEB72B970FB6F894DEBF0FBE0C
:101CD000CDBF6C017B018A01FC01178216828381D2
:101CE00081FFBFC1CE0101963C01F6019381F7014E
:101CF00093FD859193FF81917F01882309F4ADC104
:101D0000853239F493FD859193FF81917F0185326E
:101D100021F4B60190E0F0D4E8CF912C212C312CA5
:101D2000FFE1F315D8F08B3279F038F4803279F096
:101D30008332A1F4232D20611DC08D3261F08033E8
:101D400069F4232D216016C0832D8260382EE32D87
:101D5000E4603E2E2AC0F32DF8601DC037FC2DC074
:101D600020ED280F2A3040F08E32B9F436FC75C1D0
:101D7000232D2064322E19C036FE06C08AE0989EBC
:101D8000200D1124922E11C0EAE02E9E200D112468
:101D9000222EF32DF0623F2E08C08C3621F4832DC5
:101DA0008068382E02C0883641F4F70193FD859192
:101DB00093FF81917F018111B3CF982F9F7D95541F
:101DC000933028F40C5F1F4F9FE399830DC0833637
:101DD00031F0833771F0833509F055C020C0F80128
:101DE000808189830E5F1F4F88248394912C530137
:101DF00012C02801F2E04F0E511CF801A080B18002
:101E000036FE03C0692D70E002C06FEF7FEFC501A1
:101E10002AD44C018201F32DFF773F2E15C02801F3
:101E200022E0420E511CF801A080B18036FE03C0B2
:101E3000692D70E002C06FEF7FEFC50109D44C013E
:101E4000F32DF0683F2E820133FC19C0822D90E003
:101E500088169906A0F4B60180E290E04DD42A9449
:101E6000F5CFF50137FC859137FE81915F01B60111
:101E700090E042D421102A9421E0821A9108811422
:101E8000910479F7E1C0843611F0893639F5F8010B
:101E900037FE07C060817181828193810C5F1F4F83
:101EA00008C060817181072E000C880B990B0E5FB2
:101EB0001F4FF32DFF763F2E97FF09C09095809519
:101EC000709561957F4F8F4F9F4FF0683F2E2AE0AE
:101ED00030E0A30166D4882E861844C0853731F4DB
:101EE000232D2F7EB22E2AE030E025C0932D997F3E
:101EF000B92E8F36C1F018F4883579F0AEC080372E
:101F000019F0883721F0A9C0E92FE061BE2EB4FE98
:101F10000DC0FB2DF460BF2E09C034FE0AC0292F6E
:101F20002660B22E06C028E030E005C020E130E097
:101F300002C020E132E0F801B7FE07C06081718184
:101F4000828193810C5F1F4F06C06081718180E0A8
:101F500090E00E5F1F4FA30124D4882E8618FB2D1E
:101F6000FF773F2E36FE0DC0232D2E7FA22E891423
:101F700058F434FE0BC032FC09C0832D8E7EA82E8F
:101F800005C0B82CA32C03C0B82C01C0B92CA4FEEA
:101F90000FC0FE01E80DF11D8081803321F49A2DE0
:101FA000997EA92E09C0A2FE06C0B394B39404C0C2
:101FB0008A2D867809F0B394A3FC10C0A0FE06C059
:101FC000B21480F4280C922C9B180DC0B21458F453
:101FD000B60180E290E090D3B394F8CFB21418F435
:101FE0002B1802C0982C212CA4FE0FC0B60180E350
:101FF00090E082D3A2FE16C0A1FC03C088E790E067
:1020000002C088E590E0B6010CC08A2D867851F0B8
:10201000A1FE02C08BE201C080E2A7FC8DE2B60106
:1020200090E06AD3891430F4B60180E390E064D381
:102030009A94F8CF8A94F301E80DF11D8081B601DE
:1020400090E05AD38110F6CF222009F44ECEB6018B
:1020500080E290E051D32A94F7CFF60186819781F0
:1020600002C08FEF9FEF2B960FB6F894DEBF0FBE26
:10207000CDBFDF91CF911F910F91FF90EF90DF9037
:10208000CF90BF90AF909F908F907F906F905F9018
:102090004F903F902F90089520FD09C0FC0123FD33
:1020A00005C022FF02C07383628351834083089579
:1020B00044FD17C046FD17C0AB01BC01DA01FB01AE
:1020C000AA0FBB1FEE1FFF1F1094D1F74A0F5B1F13
:1020D0006E1F7F1FCB01BA01660F771F881F991FE4
:1020E00009C033E001C034E0660F771F881F991FD5
:1020F0003150D1F7620F711D811D911D08950F930D
:102100001F93CF93DF938C01C801B8D2EC0197FDE8
:1021100006C08BD2892BC1F7B801CE0129D3CE01DD
:10212000DF91CF911F910F9108958F929F92AF925F
:10213000BF92EF92FF920F931F93CF93DF938C0187
:10214000D62F7A01B22E9AD29C0133272B32310539
:1021500031F02D32310559F48B2D8068B82ED150D5
:1021600011F480E061C0C80189D297FDFACFCB2D70
:10217000CD7F2B2D2073F9F48033E9F4AA24AA949F
:10218000AD0E09F43EC0C80179D297FD3AC09C015A
:102190002F7D33272835310541F4C264D25089F1AF
:1021A000C8016CD297FF07C02CC0B6FE02C0C26047
:1021B00001C0C261DA2D812C912C540120ED280F31
:1021C000283078F0C4FF03C0B801D2D217C02A303B
:1021D00040F0C6FFF9CF2F7D3FEE320F3630A0F72B
:1021E00027504C2FC501B40163DF4B015C01C26075
:1021F000D15051F0C80142D297FFE0CFC1FD04C0D9
:10220000B0CF812C912C5401C7FF08C0B094A0948A
:1022100090948094811C911CA11CB11C2C2FB501A1
:10222000A401C70139DF81E0DF91CF911F910F91A8
:10223000FF90EF90BF90AF909F908F9008955F9226
:102240006F927F928F929F92AF92BF92CF92DF92C6
:10225000EF92FF920F931F93CF93DF93CDB7DEB72B
:10226000A0970FB6F894DEBF0FBECDBF5C01962ECF
:102270007A01F9018E010F5F1F4F680180E2D801DA
:102280001D928A95E9F7D50113968C9080E090E035
:10229000612C712C30E061E070E083FC259183FEBD
:1022A00021918F01522E211103C080E090E090C057
:1022B0002E3511F4009751F1432F50E0481759077C
:1022C0003CF42D3559F12D3219F4772009F103C072
:1022D000772009F468C0452D469546954695D60168
:1022E000A40FB11D452D47708B0102C0000F111FB7
:1022F0004A95E2F7A8015C91452B4C93651459F07F
:10230000561410F45394E7CF5A94E5CF31E004C04B
:102310007724739401C0712C0196BFCF772019F0F8
:102320008E8180628E83311103C08824839417C00C
:10233000F6019E012F5D3F4F8081809581932E177E
:102340003F07D1F7F2CFE114F10429F0D7018C93C4
:10235000F70131967F019A94812C9920E9F0C5010B
:102360008DD197FD17C0FC01FF2723E0F595E79578
:102370002A95E1F7EC0DFD1D208130E0AC0147709E
:10238000552702C0359527954A95E2F720FDDBCF0A
:10239000B501EED1811089CFE114F10411F0D7011C
:1023A0001C92C80115C0422F469546954695D60108
:1023B000A40FB11D422F47708B0102C0000F111FE7
:1023C0004A95E2F7A8015C91452B4C93622EA4CF6D
:1023D000A0960FB6F894DEBF0FBECDBFDF91CF91B0
:1023E0001F910F91FF90EF90DF90CF90BF90AF9033
:1023F0009F908F907F906F905F9008955F926F9203
:102400007F928F929F92AF92BF92CF92DF92EF9284
:10241000FF920F931F93CF93DF936C01EB015A014F
:10242000FC0117821682512CF601E380FE01E3FCC9
:102430008591E3FE8191182FEF01882309F4E0C014
:1024400090E0F3D0892B19F0C60159DEEDCF15329B
:1024500041F4FE01E3FC1591E3FE1191EF01153209
:1024600071F4C6010BD197FDC9C0412F50E09C010A
:10247000332724173507C1F2B6017AD1C1C01A3209
:1024800039F4E3FC1591E3FE1191EF0101E001C085
:1024900000E0F12C20ED210F2A3078F402606F2D3E
:1024A00070E080E090E040E203DEF62EFE01E3FC07
:1024B0001591E3FE1191EF01EDCF01FF03C0F11083
:1024C00003C09EC0FF24FA94183619F01C3651F050
:1024D00010C0FE01E3FC1591E3FE1191EF011836E7
:1024E00041F408600460FE01E3FC1591E3FE1191E4
:1024F000EF01112309F484C0612F70E08CE890E0B3
:102500009CD0892B09F47CC000FD07C0F5018080B8
:102510009180C50102965C0102C0812C912C1E366F
:1025200049F4F6014681578160E070E0202FC40134
:10253000B3DD7ACF1336A1F401FD02C0FF24F3947A
:10254000C6019CD097FD5AC08114910429F0F40172
:102550008083C40101964C01FA94F110F1CF4AC076
:102560001B3551F49E01A4016F2DC60168DEEC01FC
:10257000892B09F03FC039C0C601C1DD97FD3EC0BF
:102580001F3649F128F4143621F1193639F125C0E6
:10259000133771F01537E9F020C08114910429F048
:1025A000F4016082C40101964C01FA94FF2059F0B5
:1025B000C60164D03C0197FD06C037D0892B69F372
:1025C000B601C301D5D081149104A1F0F4011082A9
:1025D00011C0006203C0006101C00064202FA4018B
:1025E0006F2DC601A2DD811105C0F60183818073C4
:1025F00029F406C000FD18CF539416CF552019F0CA
:10260000852D90E002C08FEF9FEFDF91CF911F915A
:102610000F91FF90EF90DF90CF90BF90AF909F9081
:102620008F907F906F905F900895911118C18032C4
:1026300019F089508550D0F70895FC0105900616D1
:1026400021F00020D9F7C00108953197CF010895F6
:10265000FC010590615070400110D8F7809590956D
:102660008E0F9F1F0895FC01615070400190011072
:10267000D8F7809590958E0F9F1F0895CF93DF9385
:10268000EC012B8120FF33C026FF0AC02F7B2B8358
:102690008E819F8101969F838E838A8190E029C0DD
:1026A00022FF0FC0E881F9818081082E000C990B70
:1026B000009719F420622B831AC03196F983E883BE
:1026C0000EC0EA85FB85099597FF09C02B8101960D
:1026D00011F080E201C080E1822B8B8308C02E8143
:1026E0003F812F5F3F4F3F832E83992702C08FEF9B
:1026F0009FEFDF91CF9108950F931F93CF93DF93B7
:10270000FB01238121FD03C08FEF9FEF2CC022FF2F
:1027100016C046815781248135814217530744F4FE
:10272000A081B1819D012F5F3F4F318320838C9326
:10273000268137812F5F3F4F3783268314C08B015B
:10274000EC01FB010084F185E02D0995892BE1F670
:10275000D80116968D919C911797019617969C9388
:102760008E931697CE01DF91CF911F910F9108950F
:10277000FB01238120FF12C026FD10C08F3F3FEFD9
:10278000930761F082832F7D206423832681378124
:102790002150310937832683992708958FEF9FEFC2
:1027A0000895FA01AA27283051F1203181F1E894E7
:1027B0006F936E7F6E5F7F4F8F4F9F4FAF4FB1E034
:1027C0003ED0B4E03CD0670F781F891F9A1FA11D2F
:1027D000680F791F8A1F911DA11D6A0F711D811D30
:1027E000911DA11D20D009F468943F912AE0269FF5
:1027F00011243019305D3193DEF6CF010895462F54
:102800004770405D4193B3E00FD0C9F7F6CF462F34
:102810004F70405D4A3318F0495D31FD405241939D
:1028200002D0A9F7EACFB4E0A6959795879577955A
:102830006795BA95C9F700976105710508959B01E1
:10284000AC010A2E06945795479537952795BA956A
:10285000C9F7620F731F841F951FA01D0895992744
:1028600088270895DC01CB01FC01E199FECF06C069
:10287000FFBBEEBBE09A31960DB20D924150504035
:10288000B8F70895DC01CB0102C02D9105D041506D
:102890005040D8F70895262FE199FECF9FBB8EBBFD
:1028A0002DBB0FB6F894E29AE19A0FBE01960895F7
:0428B000F894FFCFCA
:1028B400A30100000000B601C801EB0241026E0151
:1028C4006D01000000007D018C01A302E2016F0193
:1028D400360300003F0341030000009F046E0427F9
:1028E400040000F703B70385034303D604AE0400D2
:1028F4000000000300000000AA0BB70B00002D2D00
:102904002D2D2D2D2D2D2D2D2D2D2D2D2D2D2D2DF3
:0E2914002D2D2D2D2D2D2D2D2D2D2D2D2D2D3F
:00000001FF
